:100000000C9464000C942B050C9404050C948C0047
:100010000C948C000C948C000C948C000C948C0030
:100020000C948C000C948C000C948C000C948C0020
:100030000C948C000C948C000C948C000C948C0010
:100040000C94BA040C948C000C9478050C94520512
:100050000C948C000C948C000C948C000C948C00F0
:100060000C948C000C948C000000000024002700ED
:100070002A0000000000250028002B0000000000DE
:1000800023002600290004040404040404040202DA
:100090000202020203030303030302010204081025
:1000A0002040800102040810200102040810208072
:1000B0000000000800020100000304070000000027
:1000C000000000000000AA0511241FBECFEFD8E0F9
:1000D000DEBFCDBF11E0A0E0B1E0E8EDF2E102C08B
:1000E00005900D92A631B107D9F721E0A6E1B1E064
:1000F00001C01D92A63FB207E1F710E0C4E6D0E0D0
:1001000004C02197FE010E944909C336D107C9F7EF
:100110000E94F0060C946A090C9400000895823045
:10012000F8F4E82FF0E0EE0FFF1FE050FF4F2EE84D
:1001300030E031832083813041F0809169008C7FF1
:10014000682B60936900E89A089580916900837F25
:10015000660F771F660F771F682B60936900E99A17
:100160000895833081F028F4813099F08230A9F02D
:1001700008958730A9F08830C9F08430B1F48091B7
:1001800080008F7D03C0809180008F7780938000F6
:10019000089584B58F7784BD089584B58F7DFBCF96
:1001A0008091B0008F778093B00008958091B00067
:1001B0008F7DF9CFCF93DF93282F30E0F901E05501
:1001C000FF4F8491F901E556FF4FD491F901EA57A9
:1001D000FF4FC491CC23A1F081110E94B100EC2FFC
:1001E000F0E0EE0FFF1FE458FF4FA591B491EC91A2
:1001F000ED2381E090E009F480E0DF91CF91089554
:1002000080E090E0FACF1F93CF93DF93282F30E068
:10021000F901E055FF4F8491F901E556FF4FD49164
:10022000F901EA57FF4FC491CC23A9F0162F811191
:100230000E94B100EC2FF0E0EE0FFF1FEE58FF4FD1
:10024000A591B4918FB7F894EC91111108C0D09595
:10025000DE23DC938FBFDF91CF911F910895DE2BBA
:10026000F8CF1092190160E08BE00C94030110921A
:10027000190161E08BE00C940301CF93DF93EC0153
:100280008091CF019091D001029749F4C130D105FE
:1002900009F43BC06CF560E0209709F437C0809109
:1002A000CF019091D001049749F4C130D10509F4F0
:1002B0005CC00CF037C0209709F442C08091CF0198
:1002C0009091D001059709F0E5C0CA30D10508F03A
:1002D000E1C0FE01E259FE4F0C944909CD01D9015C
:1002E000EA0100021B021D02240230024102480200
:1002F000C230D105A9F060E0C330D10581F680910C
:10030000D3010E94030160E006C061E08091D30147
:100310000E94030161E08091D5010E940301BFCFDB
:1003200061E0EDCFC230D10539F1C330D10509F01C
:10033000C5CF61E08091D3010E94030160E022C03B
:1003400061E08091D3010E94030160E08091D501BA
:100350000E94030161E08091D7010E94030160E0E7
:100360008091D9010E940301A9CF60E08091D3015F
:100370000E94030161E0EACF60E08091D3010E9416
:10038000030161E08091D5010E94030160E080914A
:10039000D7010E94030161E0E3CF60E08091D301C7
:1003A0000E94030161E08091D5010E94030161E098
:1003B0000BC060E08091D3010E94030161E0809155
:1003C000D5010E94030160E08091D7010E940301E2
:1003D00060E010C060E08091D3010E94030161E001
:1003E0008091D5010E94030160E08091D7010E94B5
:1003F000030161E08091D9010E94030161E015C011
:1004000060E08091D3010E94030161E08091D501F9
:100410000E94030160E08091D7010E94030161E026
:100420008091D9010E94030160E08091DB01DF919E
:10043000CF910C94030161E0E4CF61E08091D3019E
:100440000E94030160E0E2CF61E08091D3010E944D
:10045000030160E08091D5010E94030161E0DBCFE0
:1004600061E08091D3010E94030160E08091D50199
:100470000E94030161E08091D7010E94030160E0C6
:10048000CFCF61E08091D3010E94030160E08BCF68
:1004900060E0F8CFDF91CF910895CF93DF9390E0A4
:1004A000FC01E556FF4F24918A579F4FFC01849130
:1004B0008823D1F090E0880F991FFC01E859FF4F85
:1004C000A591B491FC01EE58FF4FC591D4916230D3
:1004D00071F49FB7F8943C91822F809583238C937D
:1004E000E8812E2B28839FBFDF91CF9108958FB78E
:1004F000F894EC912E2B2C938FBFF6CF3FB7F89446
:1005000080911F0190912001A0912101B0912201C1
:1005100026B5A89B05C02F3F19F00196A11DB11D5E
:100520003FBFBA2FA92F982F8827BC01CD01620F9A
:10053000711D811D911D42E0660F771F881F991F55
:100540004A95D1F708954F925F926F927F928F9262
:100550009F92AF92BF92EF92FF920F931F93CF9310
:10056000DF93EC0197FF04C0CC27DD27C81BD90B14
:10057000181619060CF061C081E090E09093C80154
:100580008093C70104E010E08AE0E82EF12C209768
:1005900009F46FC00E947E028090DD019090DE0120
:1005A000A090DF01B090E0012B013C0148185908F0
:1005B0006A087B088090C9019090CA01A090CB0185
:1005C000B090CC01481459046A047B0400F3609392
:1005D000DD017093DE018093DF019093E001809153
:1005E000D1019091D2012091C7013091C8012130F1
:1005F000310559F501969093D2018093D101209154
:10060000CD013091CE018217930721F41092D201CF
:100610001092D10121978091D1019091D201209126
:10062000CF013091D001B7012530310509F0B80173
:100630000E9435090E943D01AACF892B09F4A2CF5F
:100640001092C8011092C7019DCF892B41F480916F
:10065000CD019091CE019093D2018093D1018091F0
:10066000D1019091D20101979093D2018093D10151
:10067000D1CFDF91CF911F910F91FF90EF90BF905D
:10068000AF909F908F907F906F905F904F90089564
:10069000CF93DF93EC010E94A302E7ECF1E084A585
:1006A00095A58C0F9D1F64A175A10E94350995A782
:1006B00084A7DF91CF91089581E090E00E94A3028A
:1006C0008091E9010E94DA009C0191E02115310539
:1006D00009F490E08091F501882349F0232B39F447
:1006E0001092F5011092F4011092F3010895909385
:1006F000F501E2CF8F929F92AF92BF92CF92DF929D
:10070000EF92FF924B015C010E947E026B017C0123
:100710000E947E026C197D098E099F09683E734014
:1007200081059105A8F321E0821A9108A108B1087A
:1007300088EEC80E83E0D81EE11CF11C81149104E0
:10074000A104B10429F7FF90EF90DF90CF90BF9004
:10075000AF909F908F9008950895AF92BF92CF92DF
:10076000DF92EF92FF920F931F93CF93DF936C0171
:100770007B018B01040F151FEB015E01AE18BF0852
:10078000C017D10759F06991D601ED91FC91019004
:10079000F081E02DC6010995892B79F7C501DF911C
:1007A000CF911F910F91FF90EF90DF90CF90BF906E
:1007B000AF900895FC01538D448D252F30E0842F98
:1007C00090E0821B930B541710F0CF960895019779
:1007D0000895FC01918D828D981761F0A28DAE0F66
:1007E000BF2FB11D5D968C91928D9F5F9F73928FED
:1007F00090E008958FEF9FEF0895FC01918D828D19
:10080000981731F0828DE80FF11D858D90E00895E5
:100810008FEF9FEF0895FC01918D228D892F90E03D
:10082000805C9F4F821B91098F739927089583E203
:1008300091E00E940B0421E0892B09F420E0822F33
:10084000089580E090E0892B29F00E94170481111F
:100850000C9400000895FC01A48DA80FB92FB11DC0
:10086000A35ABF4F2C91848D90E001968F739927E6
:10087000848FA689B7892C93A089B1898C918370C4
:1008800080648C93938D848D981306C00288F389BD
:10089000E02D80818F7D80830895EF92FF920F93EA
:1008A0001F93CF93DF93EC0181E0888F9B8D8C8D1C
:1008B00098131AC0E889F989808185FF15C09FB710
:1008C000F894EE89FF896083E889F98980818370D3
:1008D000806480839FBF81E090E0DF91CF911F9182
:1008E0000F91FF90EF900895F62E0B8D10E00F5FA3
:1008F0001F4F0F731127E02E8C8D8E110CC00FB679
:1009000007FCFACFE889F989808185FFF5CFCE0110
:100910000E942B04F1CFEB8DEC0FFD2FF11DE35A5C
:10092000FF4FF0829FB7F8940B8FEA89FB89808193
:100930008062CFCFCF93DF93EC01888D8823B9F00D
:10094000AA89BB89E889F9898C9185FD03C08081DA
:1009500086FD0DC00FB607FCF7CF8C9185FFF2CF57
:10096000808185FFEDCFCE010E942B04E9CFDF917E
:10097000CF9108951F920F920FB60F9211242F93CB
:100980003F938F939F93AF93BF9380911B0190915F
:100990001C01A0911D01B0911E0130911A0123E0AC
:1009A000230F2D3758F50196A11DB11D20931A0173
:1009B00080931B0190931C01A0931D01B0931E0115
:1009C00080911F0190912001A0912101B0912201FD
:1009D0000196A11DB11D80931F0190932001A0934A
:1009E0002101B0932201BF91AF919F918F913F91CF
:1009F0002F910F900FBE0F901F90189526E8230F90
:100A00000296A11DB11DD2CF1F920F920FB60F9269
:100A100011242F933F934F935F936F937F938F9303
:100A20009F93AF93BF93EF93FF93E0910201F091F7
:100A300003010995FF91EF91BF91AF919F918F9124
:100A40007F916F915F914F913F912F910F900FBECA
:100A50000F901F9018951F920F920FB60F921124AE
:100A60002F933F934F935F936F937F938F939F93B6
:100A7000AF93BF93EF93FF93E0910001F0910101D9
:100A80000995FF91EF91BF91AF919F918F917F91C8
:100A90006F915F914F913F912F910F900FBE0F90EB
:100AA0001F9018951F920F920FB60F9211242F933B
:100AB0003F934F935F936F937F938F939F93AF93E6
:100AC000BF93EF93FF9383E291E00E942B04FF9189
:100AD000EF91BF91AF919F918F917F916F915F91B6
:100AE0004F913F912F910F900FBE0F901F9018952F
:100AF0001F920F920FB60F9211242F938F939F93F3
:100B0000EF93FF93E0913301F09134018081E09104
:100B10003901F0913A0182FD1BC0908180913C0126
:100B20008F5F8F7320913D01821741F0E0913C016E
:100B3000F0E0ED5DFE4F958F80933C01FF91EF91CA
:100B40009F918F912F910F900FBE0F901F9018952E
:100B50008081F4CFAF92BF92CF92DF92EF92FF925B
:100B60000F931F93CF93DF931092260110922501CC
:100B700088EE93E0A0E0B0E08093270190932801F5
:100B8000A0932901B0932A0188E091E09093240179
:100B90008093230185EC90E09093300180932F01A6
:100BA00084EC90E0909332018093310180EC90E0EE
:100BB000909334018093330181EC90E0909336015F
:100BC0008093350182EC90E0909338018093370157
:100BD00086EC90E090933A018093390110923C01A9
:100BE00010923D0110923E0110923F011092D201ED
:100BF0001092D1011092C8011092C7011092DD012C
:100C00001092DE011092DF011092E001C0E0D8E006
:100C1000D093CE01C093CD018AE0A82EB12CB09222
:100C2000D401A092D30198E0E92EF12CF092D601E4
:100C3000E092D50129E0C22ED12CD092D801C092E9
:100C4000D70107E010E01093DA010093D90161E0C9
:100C50008AE00E944D0261E08091D5010E944D0220
:100C600061E08091D7010E944D0261E08091D9013D
:100C70000E944D021092DC011092DB0184E090E0B2
:100C80009093D0018093CF01B092E201A092E10154
:100C9000D092E401C092E301F092E601E092E50116
:100CA0001093E8010093E7019093EA018093E90132
:100CB000D093EC01C093EB0180E490E09093EE01BF
:100CC0008093ED011092F2011092F1018FEF9FEFEE
:100CD0009093F4018093F30162E084E00E944D025E
:100CE0008091E9010E94DA0021E0892B09F420E0DB
:100CF0002093F50182E08093C00181E391E090931D
:100D0000C2018093C10187E391E09093C401809375
:100D1000C30183E090E09093C6018093C50162E037
:100D200082E00E944D0278948091C5019091C601A5
:100D30008130910559F188F082309105A9F103972E
:100D400009F440C0DF91CF911F910F91FF90EF9078
:100D5000DF90CF90BF90AF9008958091C001823016
:100D600089F0833089F08FEF70E060E0DF91CF9100
:100D70001F910F91FF90EF90DF90CF90BF90AF90B9
:100D80000C948F0080E0F0CF81E0EECF8091C00125
:100D9000823031F0833031F08FEF61E070E0E6CFE8
:100DA00080E0FBCF81E0F9CF8091C001823031F04B
:100DB000833031F08FEF63E070E0D8CF80E0FBCF7D
:100DC00081E0F9CF8091C001823031F0833031F081
:100DD0008FEF62E070E0CACF80E0FBCF81E0F9CF17
:100DE000789484B5826084BD84B5816084BD85B506
:100DF000826085BD85B5816085BD80916E00816012
:100E000080936E00109281008091810082608093B7
:100E100081008091810081608093810080918000B9
:100E20008160809380008091B10084608093B100E4
:100E30008091B00081608093B00080917A008460DE
:100E400080937A0080917A00826080937A0080910A
:100E50007A00816080937A0080917A008068809324
:100E60007A001092C10061E08BE00E944D0260E0C8
:100E70008BE00E940301E0913301F091340182E0A4
:100E80008083E0912F01F09130011082E0913101D7
:100E9000F091320180E1808310923B01E0913701B3
:100EA000F091380186E08083E0913501F0913601C0
:100EB000808180618083E0913501F09136018081ED
:100EC00088608083E0913501F091360180818068EF
:100ED0008083E0913501F091360180818F7D8083A0
:100EE00064EF71E080E090E00E947A0362E083E0CA
:100EF0000E944D0262E085E00E944D0262E086E0C1
:100F00000E944D0262E082E10E944D0262E081E1B6
:100F10000E944D0262E080E10E944D0283E00E9447
:100F2000DA00D82F86E00E94DA00082F81E10E94C3
:100F3000DA00C82F82E10E94DA00F82E85E00E94D4
:100F4000DA00182F80E10E94DA009C2F990F9F0D84
:100F5000990F900F990F910F990F8295880F807EAE
:100F60008D0F980F9093160180E480937C00809100
:100F70007A00806480937A0080917A0086FDFCCFAD
:100F8000A0917800B091790020E530E00E944F09EF
:100F90002FEF33E040E050E00E94E508285231098D
:100FA000410951092C503E4F3093F2012093F10139
:100FB0002091CD013091CE01032E000C440B550B36
:100FC00060E077E883E993E00E94E508CA01B9018F
:100FD00024E130E040E050E00E94E5082093C901A0
:100FE0003093CA014093CB015093CC018091EB0127
:100FF0009091EC016091ED017091EE010E94350934
:101000007093F0016093EF010E945C038091F10105
:101010009091F2010E9448036AE070E080E090E065
:101020000E947A0360E08091E1010E94030160E088
:101030008091E3010E94030160E08091E5010E943C
:10104000030160E08091E7010E94030100E010E0ED
:101050008091C0010E94DA000197F9F4E091C30188
:10106000F091C401309709F0099583B7817F8460BE
:1010700083BF83B7816083BF83B7816083BF889557
:1010800083B78E7F83BF83B78E7F83BFE091C1011B
:10109000F091C201309709F0099583E291E00E9436
:1010A0000B04181619060CF07AC083E291E00E9436
:1010B000E90390911901923008F071C0E92FF0E036
:1010C000E95EFE4F80839F5F90931901923009F093
:1010D00066C060911701C0911801809116016813D4
:1010E0006AC02C2F30E0E091ED01F091EE01C901D2
:1010F000BF010E9435096B016091EF017091F00111
:10110000869FA001879F500D969F500D11248091BE
:10111000F1019091F201840F951FE090EB01F090A6
:10112000EC01A090F301B090F401B7010E943509E1
:10113000EC01CA19DB09D7FF02C0CE0DDF1DCE01BD
:101140002E173F0774F0F12CE12CEC14FD0434F45D
:101150000E945C038FEFE81AF80AF7CFC5018C0FE5
:101160009D1F0E9448036AE070E080E090E00E94CA
:101170007A0360E08091E1010E94030160E08091C8
:10118000E3010E94030160E08091E5010E940301F8
:1011900060E08091E7010E9403011092190101159E
:1011A000110509F455CF0E941704882309F450CF84
:1011B0000E9400004DCF83E291E00E944D046C2F0D
:1011C00083E291E00E944D04E8CF052E97FB1EF4C8
:1011D00000940E94FC0857FD07D00E94040907FCF8
:1011E00003D04EF40C94FC08509540953095219511
:1011F0003F4F4F4F5F4F0895909580957095619543
:101200007F4F8F4F9F4F0895A1E21A2EAA1BBB1B41
:10121000FD010DC0AA1FBB1FEE1FFF1FA217B307C2
:10122000E407F50720F0A21BB30BE40BF50B661FD8
:10123000771F881F991F1A9469F76095709580959C
:1012400090959B01AC01BD01CF010895A29FB00113
:10125000B39FC001A39F700D811D1124911DB29FEA
:10126000700D811D1124911D089597FB072E16F412
:10127000009407D077FD09D00E94560907FC05D0DD
:101280003EF4909581959F4F0895709561957F4F9D
:101290000895EE0FFF1F0590F491E02D09940E9430
:1012A0002609B7FF0895821B930B0895AA1BBB1B49
:1012B00051E107C0AA1FBB1FA617B70710F0A61B56
:1012C000B70B881F991F5A95A9F780959095BC0177
:0812D000CD010895F894FFCF51
:1012D800AC03AC03000000004D04AD03DA039A042C
:0612E8000B04E903FD0305
:00000001FF
